:020000040800F2
:10000000B0070020050D00082102000823020008A7
:10001000270200082B0200082F0200080000000041
:100020000000000000000000000000003302000893
:1000300035020008000000003702000839020008FD
:100040001F0D00081F0D00081F0D00081F0D0008E0
:100050001F0D00081F0D00081F0D00081F0D0008D0
:100060001F0D00081F0D00081F0D00081F0D0008C0
:100070001F0D00081F0D00081F0D00081F0D0008B0
:100080001F0D00081F0D00081F0D00081F0D0008A0
:100090001F0D00081F0D00081F0D00081F0D000890
:1000A0001F0D00081F0D00081F0D00081F0D000880
:1000B0001F0D00081F0D00081F0D00081F0D000870
:1000C0001F0D00081F0D00081F0D00081F0D000860
:1000D0001F0D00087B0C00081F0D00081F0D0008F5
:1000E0001F0D00081F0D00081F0D00081F0D000840
:1000F0001F0D00081F0D00081F0D00081F0D000830
:100100001F0D00081F0D00081F0D00081F0D00081F
:100110001F0D00081F0D00081F0D00081F0D00080F
:100120001F0D00081F0D00081F0D00081F0D0008FF
:1001300000F002F800F03FF80AA090E8000C8244BA
:100140008344AAF10107DA4501D100F034F8AFF297
:10015000090EBAE80F0013F0010F18BFFB1A43F0A5
:10016000010318479C320000BC320000103A24BF43
:1001700078C878C1FAD8520724BF30C830C144BF0C
:1001800004680C607047000000230024002500264E
:10019000103A28BF78C1FBD8520728BF30C148BFEA
:1001A0000B607047642901F0CD83002070471FB5B4
:1001B0001FBD10B510BD01F0FBFC1146FFF7F7FFA6
:1001C00000F008F801F019FD03B4FFF7F2FF03BCDB
:1001D00000F0F8FC00F08CFC4FF4A06000F0B2FDE1
:1001E0004FF4E13000F0FDFC00F018F900F03CF9AC
:1001F00000F0A6F900F003FA06E000F058FA034810
:10020000016C03A001F092FBF7E70000380000202A
:100210000D0A50726573733A256C640D0A00000074
:10022000704700BFFEE700BFFEE700BFFEE700BF6C
:10023000FEE7704770477047704700000CB500201C
:10024000019000906C48006840F480306A49086072
:1002500000BF6948006800F4003000900198401C1D
:100260000190009818B90198B0F5A06FF1D16248DB
:10027000006800F4003010B10120009001E000207F
:1002800000900098012843D15C48006840F01000BD
:100290005A4908600846006820F0030008600846D4
:1002A000006840F0020008605348406852494860C6
:1002B0000846406848600846406840F480604860EE
:1002C0000846406820F47C1048600846406840F4C6
:1002D000E81048600846006840F08070086000BF81
:1002E0004548006800F000700028F9D04248406896
:1002F00020F00300404948600846406840F0020092
:10030000486000BF3C48406800F00C000828F9D164
:100310000CBD10B5FFF792FF10BD10B53648006850
:1003200040F00100344908600846406834490840FC
:100330003149486008460068324908402E49086043
:100340000846006820F4802008600846406820F4D1
:10035000FE0048604FF41F008860FFF7DAFF4FF09F
:1003600000602949086010BD10B50021002000225E
:10037000214B5B6803F00C0121B1042906D0082948
:1003800028D107E0214B224C236027E01F4B204C53
:10039000236023E0184B5B6803F47010164B5B6816
:1003A00003F48032022303EB904022B9194B4343FC
:1003B000174C23600DE0104B5B6803F4003323B14E
:1003C000144B4343124C236003E0104B4343104C47
:1003D000236003E00D4B0E4C236000BF00BF064BB3
:1003E0005B68C3F303130C4CE15C094B1B68CB4007
:1003F000074C236010BD00000010024000200240A6
:100400000000FFF8FFFFF6FE08ED00E000127A00A2
:100410000000002000093D000400002008B5012173
:10042000482001F019F82020ADF8000010208DF8C8
:10043000030003208DF802006946094800F050FDD2
:100440002021074800F0F9FD2020ADF800006946A2
:10045000044800F045FD2021024800F0EEFD08BDF3
:10046000000C01400018014008B50121442000F0B3
:10047000F3FF1820ADF8000048208DF8030069460E
:100480002C4800F02DFD0120ADF8000028208DF84B
:1004900003006946284800F023FD08BD10B5044656
:1004A00014B10120254908702448007858B3102160
:1004B000204800F0A8FD50B108211E4800F0A3FD1F
:1004C00028B101211C4800F09EFD01281BD10A2003
:1004D00000F04BFB0020194908701021154800F06E
:1004E00092FD08B9012010BD0821124800F08BFDD3
:1004F00008B90220F7E701210F4800F084FD012828
:1005000015D10320EFE710210A4800F07CFD0128F7
:100510000DD10821074800F076FD012807D10121FF
:10052000054800F070FD10B9012004490870002052
:10053000D9E7000000180140000801401400002025
:1005400010B500F09FF910BD70B505460C4600F0DF
:10055000B0F9EE2000F05FFA00F0ECF9284600F068
:100560005AFA00F0E7F9204600F055FA00F0E2F9F7
:1005700000F0BFF970BD70B50446002500F099F990
:10058000EE2000F048FA00F0D5F9204600F043FADA
:1005900000F0D0F900F08DF9EF2000F03CFA00F007
:1005A000C9F9012000F06BFA054600F0A2F92846CF
:1005B00070BD2DE9F041054600F07BF9EE2000F01A
:1005C0002AFA00F0B7F9284600F025FA00F0B2F94F
:1005D00000F06FF9EF2000F01EFA00F0ABF90120F7
:1005E00000F04DFA0446002000F049FA074600F0FA
:1005F00080F907EB042006B23046BDE8F08110B563
:10060000AA20FFF7D6FF98490880AC20FFF7D1FF5A
:1006100095494880AE20FFF7CCFF93498880B020F1
:10062000FFF7C7FF9049C880B220FFF7C2FF8E498D
:100630000881B420FFF7BDFF8B494881B620FFF742
:10064000B8FF89498881B820FFF7B3FF8649C88180
:10065000BA20FFF7AEFF84490882BC20FFF7A9FF4C
:1006600081494882BE20FFF7A4FF7F49888210BDE0
:1006700010B500242E21F420FFF766FF052000F0BE
:1006800074FAF620FFF795FF0446204610BD10B51A
:1006900000243421F420FFF757FF052000F065FA0D
:1006A000F620FFF786FF0446A4B2204610BD2DE9D0
:1006B000FC5FFFF7DDFF6C498861FFF7D9FF6A49EE
:1006C0008861FFF7E4FF6849C86108468069498985
:1006D000401A654909894843C013634908620846BE
:1006E000006AB1F9141008445F49B1F91210C90247
:1006F00091FBF0F05C4948620846006A496A084488
:10070000594948630846406B083000114864084660
:10071000406BA0F57A6088630846806B4043001305
:10072000B1F90E104843C0124F4908620846B0F9AB
:100730000200896B4843C0124B4948620846006A70
:10074000496A0844484988628A6AB1F9001002EB94
:100750008101881CC11700EB91718910424AD16256
:100760001046B0F904001146896B48434013114606
:1007700008620846806B40430013B1F90C104843EF
:100780000014114648620846006A496A0844801C01
:100790008010114688620846C088896A01F50041C8
:1007A0004843C00B114608630846C069C96A401A2D
:1007B0004CF2503148431146C8630846C06BB0F153
:1007C000004F08D20846C06B4000096BB0FBF1F047
:1007D0001146086408E02448C06B2349096BB0FB4C
:1007E000F1F04000204908641F48006C00124043AB
:1007F0001D4908620846006A40F6DE31484300148D
:10080000194908620846006C184948430014164903
:1008100048620846006A496A084400F6CF601249F7
:10082000096C01EB201010490864086C02F0BCF957
:10083000804600220E4B02F05FF806460D4A0E4B32
:1008400001F06AFA044600220C4B02F035FB8246A6
:1008500000220B4B02F0FCF9CDE9000101F05EFF34
:1008600001498864BDE8FC9F3800002043E3FFFF96
:10087000D0BCF8406C45D9CC955BC83F0000F03F38
:1008800040A5E54008B50121082000F0E5FDC020A5
:10089000ADF8000014208DF8030003208DF802004D
:1008A0006946904800F01CFBC0218E4800F0C5FB53
:1008B00008BD10B58B48006820F070408949086079
:1008C0000846006840F040500860012086490860F2
:1008D0008649C1F89801042000F023F900208249DC
:1008E0000860042000F01DF900208049C1F898013B
:1008F00010BD10B57B48006820F070407949086051
:100900000846006840F04050086000207649091F02
:1009100008607649C1F89C01042000F002F901202A
:100920007149091F08607149C1F89C01042000F059
:10093000F8F810BD10B500246A48006820F0704037
:10094000684908600846006840F0004008600120DF
:100950006549086000F0E5F801206449C1F8980194
:1009600000F0DFF807E0601CC4B2FA2C03DDFFF7EB
:10097000C0FF012010BD5C48803800680028F2D11B
:100980005949091F086000BFF4E710B50020564917
:10099000091F08605348006820F070405149086002
:1009A0000846006840F04050086000204F49C1F8F8
:1009B0009C01022000F0B5F801204B49091F086096
:1009C000022000F0AEF800204849C1F8980110BD9F
:1009D00010B500204449091F08604248006820F013
:1009E0007040404908600846006840F04050086088
:1009F00001203E49C1F89C01022000F092F801203C
:100A00003949091F0860022000F08BF8002037499F
:100A1000C1F8980110BD70B504463248006820F056
:100A20007040304908600846006840F04050086057
:100A300000202D49091F086000251DE0E00918B1BC
:100A400001202949086002E000202749086060066B
:100A5000040E022000F065F801202349091F0860F8
:100A6000022000F05EF800202049C1F89801022021
:100A700000F057F8681CC5B2082DDFDB70BD70B5FB
:100A8000054600241748006820F0704015490860AA
:100A90000846006840F000400860002617E000208B
:100AA0001149091F0860022000F03BF801200F499E
:100AB000C1F898016006040E0B488038006808B140
:100AC000601CC4B2012000F02CF8701CC6B2082EC5
:100AD000E5DB15B9FFF77CFF01E0FFF756FF204685
:100AE00070BD0000000C01409C8121420080214229
:100AF00010B56FF0040000F074F92E4800682E491C
:100B0000B0FBF1F02D4908700846007800EB400179
:100B1000C1EBC0104FF6FF7101EAC0002849088000
:100B200010BD0146254A12784A434FF0E0235A612E
:100B300000229A611A46126942F001021A6100BF4E
:100B40004FF0E022106900F001021AB100F4803287
:100B5000002AF5D04FF0E022126922F001024FF096
:100B6000E0231A6100229A6170470146144A1288F4
:100B70004A434FF0E0235A6100229A611A461269F3
:100B800042F001021A6100BF4FF0E022106900F04C
:100B900001021AB100F48032002AF5D04FF0E022B1
:100BA000126922F001024FF0E0231A6100229A61DB
:100BB000704700000000002000127A00160000209C
:100BC00018000020014600BF704700BF494A128844
:100BD00002F04002002AF9D0C2B2464B1B1D1A8017
:100BE000704710B586B00446012144F2040000F0BD
:100BF00033FC4FF40070ADF8140003208DF816009C
:100C000018208DF8170005A93B4800F069F94FF44A
:100C10008060ADF8140004208DF8170005A936484F
:100C200000F05EF925208DF8000003208DF801000A
:100C30008DF8020001208DF80300684600F087F867
:100C400001940020ADF80800ADF80A00ADF80C00E2
:100C5000ADF810000C20ADF80E0001A9254800F0F9
:100C6000A2FC012240F22551224800F034FD01216E
:100C7000204800F024FD06B010BD10B540F225510B
:100C80001C4800F00DFE10B31A4800F089FDC4B2F4
:100C90001A48008800F40040C8B91848008800F4D9
:100CA000804060B10A2C03D000201449088020E065
:100CB0001248008840F400401049088019E00D2CCB
:100CC00006D10E48008840F480400C49088010E0AE
:100CD0000A480088C0F30D0009490C5407480088F1
:100CE000401C0649088008460088C72801DD00200E
:100CF000088010BD0038014000080140200000209D
:100D0000840000200948804709480047FEE7FEE7C5
:100D1000FEE7FEE7FEE7FEE7FEE7FEE7FEE7FEE7AB
:100D200004480549054A064B704700001B030008AC
:100D300031010008B0010020B0070020B0030020FE
:100D4000B003002031490143314A1160704770B54A
:100D5000002100230F22C47804B32D4C246804F42E
:100D6000E064C4F5E064210AC1F10403CA40447898
:100D700004FA03F18478144021430901254C0678D4
:100D8000A155047804F01F050124AC4005786D11CD
:100D9000AD0005F1E025C5F8004109E0047804F054
:100DA0001F050124AC401C4D0678761145F82640FD
:100DB00070BD1A4A0A400243154B1B1F1A60704748
:100DC00039B1134A121D12680243114B1B1D1A60E0
:100DD00006E00F4A121D126882430D4B1B1D1A605C
:100DE0007047042808D14FF0E021096941F004015F
:100DF0004FF0E022116107E04FF0E021096921F096
:100E000004014FF0E0221161704700000000FA0574
:100E10000CED00E000E400E080E100E080FFFF1F57
:100E200010B50446CC48844208D10121042000F0CA
:100E30002DFB0021042000F029FB46E0C748844236
:100E400008D10121082000F021FB0021082000F03A
:100E50001DFB3AE0C248844208D10121102000F075
:100E600015FB0021102000F011FB2EE0BD4884424C
:100E700008D10121202000F009FB0021202000F0F2
:100E800005FB22E0B848844208D10121402000F04F
:100E9000FDFA0021402000F0F9FA16E0B348844240
:100EA00008D10121802000F0F1FA0021802000F01B
:100EB000EDFA0AE0AE48844207D10121801500F026
:100EC000E5FA0021A01500F0E1FA10BD10B50121EE
:100ED000084600F0DBFA0021012000F0D7FA10BD2F
:100EE0002DE9F041024600250026002000230024C1
:100EF000002791F803C00CF00F0591F803C00CF027
:100F0000100CBCF1000F03D091F802C04CEA0505AB
:100F100091F800C0BCF1000F31D0146800202BE024
:100F20004FF0010C0CFA00F3B1F800C00CEA030614
:100F30009E4220D183004FF00F0C0CFA03F7BC4304
:100F400005FA03FC4CEA040491F803C0BCF1280F35
:100F500006D14FF0010C0CFA00FCC2F814C00AE0F4
:100F600091F803C0BCF1480F05D14FF0010C0CFA09
:100F700000FCC2F810C0401C0828D1D31460B1F89E
:100F800000C0BCF1FF0F34DD546800202EE000F1FA
:100F9000080C4FF0010808FA0CF3B1F800C00CEA95
:100FA00003069E4221D183004FF00F0C0CFA03F789
:100FB000BC4305FA03FC4CEA040491F803C0BCF1FD
:100FC000280F05D100F1080C08FA0CF8C2F81480BB
:100FD00091F803C0BCF1480F07D100F1080C4FF0A5
:100FE000010808FA0CF8C2F81080401C0828CED37B
:100FF0005460BDE8F0814FF6FF71018002218170DD
:101000000421C17070470246002093680B400BB169
:10101000012000E0002070470146886880B27047D8
:1010200002460020D3680B400BB1012000E00020F5
:1010300070470146C86880B27047016170474161DE
:1010400070470AB1016100E041617047C1607047BB
:101050004FF480320A4382618161826182698269D0
:10106000704702460020434B18684FF680731840C3
:1010700040EA021008433F4B186070473E49C86180
:101080007047F0B50A46002300240021002500F037
:101090000046B6F1004F02D1364EF16901E0354EFF
:1010A0007168C0F3034583B200F44016B6F5401FE3
:1010B00008D121F070612F4E766826F070662D4FB2
:1010C0007E6012E000F48016B6F5801F06D103267C
:1010D00006FA05F4A14341F0706106E0460D3601C1
:1010E00003FA06F6B14341F0706122B1460D3601B4
:1010F00003FA06F6314300F00046B6F1004F02D184
:101100001C4EF16101E01B4E7160F0BD30B5002254
:101110008B071C0F0F2303FA04F2164B08338C10B5
:1011200053F824309343134C08348D1044F8253081
:1011300023468C1053F824308C07240F00FA04F453
:1011400023430C4C08348D1044F8253030BD0A4937
:10115000DC3108607047000000080140000C0140CD
:10116000001001400014014000180140001C014023
:10117000002001400000014000002042DF480068DC
:1011800040F00100DD49086008464068DC4908403D
:10119000DA49486008460068DA490840D7490860DB
:1011A0000846006820F4802008600846406820F463
:1011B000FE0048604FF41F0088607047CF490968FF
:1011C00021F48031CD4A11601146096821F4802153
:1011D0001160B0F5803F03D0B0F5802F0ED106E04E
:1011E000C649096841F48031C44A116007E0C34927
:1011F000096841F4A021C14A116000E000BF00BFAE
:10120000704710B501460022002300204A11012A30
:1012100002D1BA4C236806E0022A02D1B74C236AF5
:1012200001E0B64C636A01F01F02012494401C40A7
:101230000CB1012000E0002010BD38B50020009066
:101240000024002500BF3120FFF7DBFF0546009892
:10125000401C00900098B0F5A06F01D0002DF2D096
:101260003120FFF7CEFF08B1012400E00024204622
:1012700038BD01460020A14A106820F0F80040EA7D
:10128000C10010607047A049086070470246002006
:101290009A4B586820F47C1042EA01031843974B9C
:1012A0005860704798490866704701460020934A85
:1012B000506820F003000843506070478F48406832
:1012C00000F00C007047014600208C4A506820F066
:1012D000F00008435060704701460020874A50687C
:1012E00020F4E06008435060704701460020834AC4
:1012F000506820F4605040EAC1005060704729B146
:101300007E4A527A02437D4B5A7204E07B4A527AFB
:1013100082437A4B5A7270477B49D83108607047D4
:1013200001460020754A506820F440400843506050
:1013300070470021714A20321170704A82F82010E3
:10134000012802D004280AD104E001216B4A20328E
:10135000117005E00521694A2032117000E000BFDC
:1013600000BF70476949086070476449096A0143D2
:10137000624A11627047654944390860704730B568
:1013800000210022002400235C4D6D6805F00C0153
:1013900021B1042905D0082923D105E05C4D056061
:1013A00022E05B4D05601FE0544D6D6805F470123E
:1013B000524D6D6805F48034022505EB92421CB94C
:1013C000544D554305600BE04C4D6D6805F40035F8
:1013D0001DB1504D5543056002E04D4D554305602C
:1013E00002E04B4D056000BF00BF444D6D6805F045
:1013F000F0010909484D6B5C0568DD4045603F4DD3
:101400006D6805F4E061090A434D6B5C4568DD4099
:1014100085603A4D6D6805F46051C90A3E4D6B5CBC
:101420004568DD40C560354D6D6805F44041890B68
:101430003A4D6B5CC568B5FBF3F5056130BD29B16C
:101440002E4A526902432D4B5A6104E02B4A5269DD
:1014500082432A4B5A61704729B1284A9269024354
:10146000264B9A6104E0254A92698243234B9A6194
:10147000704729B1214AD2690243204BDA6104E066
:101480001E4AD26982431D4BDA61704729B11B4A5B
:10149000D2680243194BDA6004E0184AD2688243EA
:1014A000164BDA60704729B1144A12690243134B94
:1014B0001A6104E0114A12698243104B1A617047A5
:1014C00012494039086070470F49C86470470B499A
:1014D000C87170470948406A40F080700749486207
:1014E000704701460020054A92680A400AB101206F
:1014F00000E00020704701498872704700100240E8
:101500000000FFF8FFFFF6FE000042428004424266
:1015100000127A0000093D00220000203200002065
:1015200010B50446FB48844209D101218803FFF726
:10153000ADFF00214FF48040FFF7A8FF32E0F648EE
:10154000844209D101214804FFF7ADFF00214FF487
:101550000030FFF7A8FF25E0F048844209D10121BF
:101560008804FFF7A0FF00214FF48020FFF79BFFC6
:1015700018E0EB48844209D10121C804FFF793FF2A
:1015800000214FF40020FFF78EFF0BE0E548844276
:1015900008D101210805FFF786FF00214FF48010D4
:1015A000FFF781FF10BD2DE9F04786B005460E46D6
:1015B0000024A24600BFA1460027B08900B100BFA9
:1015C0002F462C8A4CF6FF700440F08804432C828E
:1015D000AC894EF6F3100440B08831890843718914
:1015E00008430443AC81AC8A4FF6FF400440B08905
:1015F0000443AC8201A8FFF7C2FEC648874202D16D
:10160000DDF810A001E0DDF80CA0A88900F400408E
:1016100040B10AEBCA0000EB0A1031684900B0FB88
:10162000F1F807E00AEBCA0000EB0A103168890004
:10163000B0FBF1F86420B8FBF0F00401200964214C
:1016400001FB1089A88900F4004040B1322000EB72
:10165000C900B0FBF1F000F00700044308E03220BD
:1016600000EB09106421B0FBF1F000F00F0004431F
:101670002C8106B0BDE8F0874FF4165101600021BF
:101680008180C18001810C214181002181817047CD
:1016900010B502460020108A4FF2FF0318400B8855
:1016A0004C8823438C882343CC88234318431082DF
:1016B00010BD0021018041808180C180704721B12F
:1016C000828942F40052828104E082894DF6FF73E0
:1016D0001A4082817047F0B5034600240026002599
:1016E000002040F66A17B94200D100BF1846C1F386
:1016F000421401F01F06012707FA06F5012C01D15B
:101700000C3004E0022C01D1103000E014301AB18A
:1017100007682F43076002E00768AF430760F0BD2A
:101720001AB1838A0B43838202E0838A8B438382CC
:101730007047028A4FF6F0731A400282028A0A4307
:101740000282704782894FF2FF731A408281828938
:101750000A438281704721B1828942F0020282816C
:1017600004E082894FF6FD731A4082817047028A35
:101770004FF6DF731A400282028A0A4302827047E0
:1017800021B1028A42F48042028204E0028A4BF6CE
:10179000FF731A4002827047C1F3080282807047CB
:1017A00001468888C0F308007047818941F0010133
:1017B00081817047028BD2B20283028B42EA0122FE
:1017C00002837047028B02F47F420283028B0A433A
:1017D0000283704721B1828A42F02002828204E0B3
:1017E000828A4FF6DF731A408282704721B1828A63
:1017F00042F01002828204E0828A4FF6EF731A40B0
:101800008282704721B1828A42F00802828204E01B
:10181000828A4FF6F7731A408282704721B182891B
:1018200042F40042828103E08289C2F30E02828187
:10183000704721B1828A42F40062828204E0828A87
:101840004FF2FF731A4082827047828A4FF6FB7311
:101850001A408282828A0A438282704721B1828A38
:1018600042F00202828204E0828A4FF6FD731A403F
:101870008282704702460020B1F5007F00D100BF90
:1018800013880B400BB1012000E00020704701F4E9
:101890000072B2F5007F00D100BFCA4302807047DA
:1018A00070B50246002400230025002040F66A1689
:1018B000B14200D100BFC1F3421501F01F03012660
:1018C00006FA03F3012D02D19689334006E0022D7A
:1018D00002D1168A334001E0968A33400C12012669
:1018E00006FA04F41688344013B10CB1012000E06C
:1018F000002070BD10B50022002340F66A14A142FA
:1019000000D100BF0A1201249440A3B2DC4304803A
:1019100010BD000000380140004400400048004075
:10192000004C004000500040704700000FB40449D4
:1019300010B503AA029800F005F910BC5DF814FB7D
:101940001C0000202DE9F04106460024106875298E
:10195000314616A510D0AFF30080002802DA4042CD
:1019600013A507E031688A0701D512A502E04907EF
:1019700004D511A5012401E0AFF3008000210A2263
:1019800006F1240709E0B0FBF2FCB0FBF2F302FB26
:101990001C00303078541846491C0028F3D12346E7
:1019A0002A463046BDE8F04100F073B80000000060
:1019B0002D0000002B000000200000002DE9F04168
:1019C0000F460546002028622846E968884770B31C
:1019D000252805D0D5E901219047286A401CF2E767
:1019E000E9682846002688476C2804460AD0682CF7
:1019F00008D04C2C35D06A2C31D0742C31D07A2CB4
:101A00002FD016E0E968064628468847B0420446CB
:101A100008D16C2E23D04FF480662846E9688847A9
:101A2000044606E06C2E03D04FF4807601E01EE001
:101A30004026E4B1A4F14100192802D8203446F42C
:101A400000663A46214628462E60FEF7ABFB60B1A1
:101A5000012808D0FF1D27F007070837B4E78026C4
:101A6000DBE70026D9E73F1DAEE72046B2E7286A4C
:101A7000BDE8F081704770477047704710B500F0BF
:101A800073F8006810BD10B5044600F06DF80460EE
:101A900010BD2DE9F0470D4699469246044600F1E7
:101AA00024080168880604D5E06921F0100121604E
:101AB00000E00120A84201DD471B00E00027A169EA
:101AC0007A1902EB0900081AA0612078C00602D436
:101AD0002046AFF30080002608E0D4E901211AF87F
:101AE00006009047206A401C761C20624E45F4DBBD
:101AF0002078C0060AD52046AFF3008006E0D4E97E
:101B0000012130209047206A401C2062381EA7F136
:101B10000107F4DC07E0D4E9012118F8050090473B
:101B2000206A401C2062281EA5F10105F3DC204636
:101B3000AFF300802078000602D50220BDE8F087D0
:101B40000120FBE7074B70B50D467B4400F015F80C
:101B50000446284600F024F810B14FF0FF3070BD65
:101B6000204670BD7DF0FFFF004870474C0100200B
:101B700001694A1C02610878704700B58FB0CDE951
:101B800001310021059105497944CDE90310114641
:101B90006846FFF713FF0FB000BD0000E5FFFFFF31
:101BA000007B00F080007047004870474C01002027
:101BB0007546FFF7F9FFAE4605006946534620F02B
:101BC0000700854618B020B5FFF7AAF8BDE8204009
:101BD0004FF000064FF000074FF000084FF0000BE9
:101BE00021F00701AC46ACE8C009ACE8C009ACE89C
:101BF000C009ACE8C0098D4670470446AFF30080C9
:101C00002046FEF7E1FA490050EAC12018BF04203F
:101C10004A0D18BF40F0010040F2FF72B2EB515F75
:101C200008BF40F00200012808BF052070472DE9D9
:101C3000F0414F1E00EBC7010446D1E900011546F3
:101C40001E4637F006020DD02A46334601F000F852
:101C50007F1E04EBC703D3E9002300F091FD37F0AA
:101C60000602F1D1022F25D0042F13D0062F18BF62
:101C7000BDE8F0812A46334600F0EAFFD4E90A23A2
:101C800000F07EFD2A46334600F0E2FFD4E9082347
:101C900000F076FD2A46334600F0DAFFD4E9062349
:101CA00000F06EFD2A46334600F0D2FFD4E904234B
:101CB00000F066FD2A46334600F0CAFFD4E902234D
:101CC00000F05EFD2A46334600F0C2FFD4E900234F
:101CD000BDE8F04100F054BD002213461046014912
:101CE00000F00ABE0000F03F00F04ABD002213469B
:101CF0001046114600F000BE40F2013200204FF0C5
:101D0000E04101F0ECBA0000024A0020110701F0A6
:101D1000E6BA000001FDFFFF2DE9F04D16460F4623
:101D200094B01C4621F0004123F00042002814BF6B
:101D30004FF0010C4FF0000C0CEB470CFE4B0CEB82
:101D400003054FEA630C65452BD3350018BF012509
:101D500005EB44051D44F94B9D4222D3F84B52EA52
:101D6000060C02D09F4205D148B914B00020194694
:101D7000BDE8F08D002808BF4FF0000C01D04FF0F7
:101D8000010C0CEB470313F5001F0AD8002E14BFFB
:101D90004FF0010C4FF0000C0CEB440313F5001F47
:101DA00007D914B0324623463946BDE8F04DFFF757
:101DB0009BBFDFF890834FF0000A002FB8BF424569
:101DC00023DAE14B9A42A8BF4FF0020A1DDADC4B3E
:101DD00093421ADCDD4B03EB2253142B08DDC3F1D5
:101DE000340C26FA0CF303FA0CFCB4450DD108E0D0
:101DF0005EB9C3F1140C22FA0CF303FA0CFC9445FF
:101E000003D103F00103C3F1020A51EA00031BD11D
:101E1000002C19DA002F18BFBAF1020F02D0BAF164
:101E2000010F07D00220FFF72EFE14B0BDE8F04DE1
:101E3000FFF752BF0220FFF726FEFFF74DFF14B059
:101E400081F00041BDE8F08D330070D1424525D1CD
:101E500007F1804212F5801201BF00280020B84926
:101E600014B008BFBDE8F08DB548884207DC002CEF
:101E7000A1BF1846214614B0BDE8F08D07E0002C44
:101E8000BFBF184684F0004114B0BDE8F08DB049E2
:101E90007944D1E9000114B0BDE8F08DDFF8A0C2AB
:101EA00062452AD1002C24DA39B1414517D10028E6
:101EB00004BF002002461CD106E040B10220FFF71B
:101EC000E2FDFFF719FF0A46394600F0D7BA9D4AEE
:101ED000394614B0002062F31E01BDE8F08D08DA27
:101EE00014B03B46BDE8F04D02460020614600F0CC
:101EF00003BD14B03946BDE8F08D414517DAB4F1A1
:101F0000804F0CD0A4F10053B3F1FF530FD13B1E0F
:101F10000DDB14B01946BDE8F04D00F0D9BB3B46CF
:101F200014B00246BDE8F04D194600F091BE050020
:101F300027F000433AD1E1B1414537D1002F06DD0A
:101F4000002CA1BF0020414614B0BDE8F08D002F49
:101F500001DD002C1FDB002F16DA002C14DBBAF198
:101F6000010F4FF0000014BF76497A4914B0BDE864
:101F7000F08DBAF1020F18BF002F0CD0BAF1010F8B
:101F800009D1002F07DA0BE0002FB8BF002C0DDAC3
:101F9000BAF1010F04D0002014B00146BDE8F08D65
:101FA00014B000204FF00041BDE8F08D4FF0010863
:101FB00008EBE77CCDF814C05CEA0A0C0DD0DFF822
:101FC00098C162457EDDDFF894C1654B624512DD44
:101FD0008B420ADB002C18DB23E00120FFF753FDC6
:101FE00014B0BDE8F04DFFF781BE554A8A4202DCCD
:101FF000002C0ADC15E0994202DA002C11DA04E028
:102000004F4B994219DD002C0BDD0220FFF73BFD01
:10201000FFF772FE4B4A14B061F31E021146BDE891
:10202000F08D0220FFF72FFDFFF76EFE444A14B03B
:1020300061F31E021146BDE8F08D0022394601F021
:102040002DF807460D466FF0010201F048F94FF0F8
:102050005532444B00F030FF3A462B4600F0F8FD75
:102060000022414B00F028FF80468B463A462B4623
:102070001046194600F0ECFD42465B4600F0E8FDD4
:1020800088460E904FF0C042384B3846294600F043
:10209000DFFD83460091364A344B41460E9800F0EE
:1020A000D7FD80460191334A334B3846294600F02C
:1020B000CFFD4246019B00F0F1FF0D4602460B4664
:1020C0000C9000E011E05846009900F059FB002701
:1020D00088465A463846009B00F0E0FF2B460C9A93
:1020E00000F0EAFE024600F079B90020B1F5801F49
:1020F00007DA35222846194601F0F1F805466FF057
:10210000340000EB2150A0F2FF300190C1F3130026
:1021100040F07F6141F04051029118498842D8BF98
:102120004FF0000B35DD16498142C8BF4FF0010B5F
:102130002FDC4FF0000B25E0FFFF1F00FFFF0F001B
:102140000000F03F0000F07F0000404301FCFFFF73
:10215000641500000000F0FF0000E0410000F043C3
:10216000FFFFEF3F5555D53F0000E03F4715F73FD4
:10217000FE822B6544DF5DF80BAE543E8E98030063
:102180007AB60B000198401C01900298A0F58010CF
:102190000290FF480299784400EBCB000991D0E906
:1021A000002328460B93129200F078FF00910A90CA
:1021B00028460B9B129A099900F0E2FA02460B4658
:1021C0000020F44900F098FBCDE90C010B460246D3
:1021D00000990A9800F03CFD0690EF4888460027D9
:1021E00078440299006810904FF0005040EA610076
:1021F00000EB8B4000F5002102910B9B129A109886
:1022000000F04CFF2A46099B00F056FE3A46434632
:1022100000F01EFD0891129038464146029B109A2C
:1022200000F016FD009B0A9A00F046FE089B129AE9
:1022300000F034FFDDE90C2300F00AFD0B91069A53
:10224000129043461046194600F002FD054602462C
:10225000D2480B460A9106217844FFF7E8FC0A9B16
:102260002A46089102901046194600F0F1FC089B9E
:10227000029A00F0EDFC054609914346384619469E
:10228000069A00F07DFA0B9B129A00F0E1FC2A46B8
:10229000099B00F075FACDE908013A46434610461D
:1022A000194600F0D5FC0A910022BD4B009000F0C9
:1022B00067FADDE9082300F063FA0D463A46B84BA9
:1022C000384600F0EBFE0A9B009A00F0E7FEDDE9DD
:1022D000082300F0F1FDCDE908013A462B461046EF
:1022E000414600F0B5FC00910A90DDE90801434643
:1022F000069A00F0ADFC069088462B463A460B99AC
:10230000129800F0A5FC4346069A00F039FA804680
:102310000B4602460D9100990A9800F031FA002010
:102320000F460546009B0A9A00F0B8FE42460D9BF8
:1023300000F0C2FD88460E904FF06042994B28464F
:10234000394600F085FC02910090974A954B414632
:102350000E9800F07DFC80460391944A944B2846E9
:10236000394600F075FC4246039B00F009FA914A99
:102370007A4402EBCB03D3E9002300F001FA0546CF
:102380000791019800F010FC0C9003912A46079BDE
:102390000299009800F0F4F9874A7A4402EBCB03E3
:1023A000D3E900239346019300F0EAF9039B0C9ACA
:1023B00000F0E6F9002788463846039B0C9A00F0A7
:1023C0006DFE5A46019B00F069FE029B009A00F0E8
:1023D00065FE2A46079B00F06FFD0246002006902E
:1023E00005986C4DAAF10103184301D1734D069075
:1023F00000200B4604903046214600F029FC82461E
:102400008B46234630461946049A00F047FE3A466A
:10241000434600F01DFC52465B4600F0B1F906460B
:102420008A463A4643462146049800F011FC044689
:102430000F463246534600F0A3F9614A8B4691425B
:1024400021DBABEB020353EA000210D122463B46EC
:1024500000F024FE804603915A4A5B4B30465146B9
:1024600000F08EF94246039B00F0F0FC27D20220D8
:10247000FFF709FBFFF740FC0A46294614B062F358
:102480001E01BDE8F08D514B2BF000429A4216D34D
:102490004F4A0BEB020353EA000208D122463B46A7
:1024A00000F0FCFD3246534600F0D0FC07D8022075
:1024B000FFF7E9FAFFF728FC0A462946DEE72BF08A
:1024C00000404449444A01EB20514FF00008824249
:1024D00023DA481C4FF4801121FA00F058443F4A97
:1024E000C0F30A517A443E4BA1F2FF31CB4020EABF
:1024F0000303C0F3130040F4801CC1F11400126800
:102500002CFA00F8BBF1000FB8BFC8F10008204654
:10251000394600F0C3FD04460F4622463B4630468E
:10252000514600F02DF94FF0000B5A462D4B5846FE
:10253000039100F08DFB00910A902B4A2B4B5846DB
:10254000039900F085FB0491029022463B465846D1
:10255000039900F0A3FD3246534600F0ADFC244A37
:10256000244B00F075FB049B029A00F009F9074622
:102570008A46009B0A9A00F003F904460E46009B27
:102580000A9A00F08BFD3A46534600F095FC33E082
:10259000D61100000000F03F1412000044110000AA
:1025A0000000084009C7EE3FFD033ADCF5015B146B
:1025B000E02F3EBE1C100000E20F00000000F0BF44
:1025C00000009040FE822B654715973C00CC904060
:1025D00000346F3F01FCFFFF0000E03F100F0000E0
:1025E000FFFF0F00432EE63F396CA80C615C20BE54
:1025F000EF39FAFE422EE63F0746224633460F9158
:102600001046194600F024FB834602462E488A46AF
:102610000B4605217844FFF70AFB5A46534600F063
:1026200017FB2246334600F047FC82468B463A466B
:10263000204631460F9B00F00BFB3A460F9B00F003
:102640009FF80F460A9000224FF0804350465946AB
:1026500000F024FD0391009052465B46204631462F
:1026600000F0F6FA039B009A00F046F93B460A9AFE
:1026700000F014FD2246334600F010FD0022134BFB
:1026800000F01AFC0E46044601EB0851081500281C
:1026900010DC42462046314600F021FEFFF7B3FA37
:1026A000042808BFFFF730FB42462046314600F0C1
:1026B00016FE044606980B4614B022462946BDE88D
:1026C000F04D00F0C5BA0000B80D00000000F03F6A
:1026D0002DE9F04106460F4600F0FAFB04000D46D6
:1026E00018BF0120284320F00040C0F17F6000F1B6
:1026F000E040C00F0ED0301C18BF0120384320F03E
:102700000040C0F17F6000F1E040C00F04BF012035
:10271000FFF7B9F920462946BDE8F08121F00042D3
:10272000A2F16052B2F5801F01F0004328BFD2F140
:102730007F6C0BD95FEA001C43EAC20242EB507087
:1027400018BF704728BF20F001007047B2F5801F06
:10275000BCBF184670474FEA410C1CF5001F02D25F
:10276000084600F085BD70B500F01CFB0000008934
:10277000FFF7F6BF4FF00040A0F580007047000063
:1027800010B591EA030F48BF83F0004300F18E8437
:10279000841A71EB030C05D2121943EB0C03001BD6
:1027A00061EB0C01DFF824E14FEA1154A4EB135C58
:1027B0001EEA430F18BF9EEA445F73D023EA0E035C
:1027C000DCF1200E21EA045143F4801332D322FAC3
:1027D0000CFE10EB0E0023FA0CFE41EB0E01CCF1C7
:1027E000200E03FA0EFE10EB0E0051F10001B1F5C0
:1027F000801FCCF1200E32D201EB045112FA0EF2FE
:10280000BDE8104058BF7047401C38BF5FEA420225
:1028100018BF7047002814BF20F0010041F10001EB
:102820004FEA410313F5001F38BF7047A1F1C041C3
:1028300000F006BB012A43EB0302ACF1200CDCF1F3
:102840001F0E32BF4FF0000E23FA0CF310EB030003
:1028500041EB0451B4EB115FD0D0A1EB045101F571
:10286000801149085FEA300001EB04510ED350F1AA
:10287000000038BF12FA0EFE08D1BDE81040C9E7CB
:10288000401C38BF5FEA4202CAD1C3E7BDE810402E
:102890004FEA410313F5001F38BF7047A1F1C04153
:1028A00000F0CEBA9EEA445F08D011EA5E0FBDE8A0
:1028B000104004BF01F0004100207047BDE8104007
:1028C00070B500F06FFA00BF64FBBE3E0000E0FF91
:1028D00002494FF0000000F0D0BC00BF0000F87FBC
:1028E000491058BFC1F140415B1058BFC3F140438C
:1028F0008B42EFF3008070472DE9C04130B4DFF820
:10290000A0C23CEA111418BF3CEA131400F0EC809A
:1029100081EA03051CEA111444EAD57418BF1CEAC5
:10292000131500F0C780A4EB05044FF0004545EAFD
:10293000C12145EAC32341EA505143EA525304F10D
:102940007F74994204F500344FEAC0204FEAC22256
:1029500008BF904200F09C804FEA13650FF24016CA
:10296000765D4FEA134506FB05F7C7F1807706FB56
:1029700007F74FEAD737A7FB03687642C8F58038D8
:10298000A7FB06CE38BFA8F1010807FB08E64FF009
:10299000000EA6FB028CE6FB03CEDCF1000CCEF1B0
:1029A000004E38BFAEF1010EA6FB0C584FF00007E9
:1029B0004FF00005E6FB0E87A1FB08C6A0FB07CE83
:1029C00016EB0E0645F10005E1FB076515F1E04E3B
:1029D0007EBFA4F580345FEA46066D4116F180079C
:1029E00045F100054FEA17274FEA066647EA0567F3
:1029F000A6F1DE46B6F1805F4FEA15251FD93846AD
:102A000024F0010C05EBC471BCF1FE6F01EB0C115D
:102A100002D8F0BCBDE8008124425CBF01F5801EF5
:102A20009EEAC47F02D4F0BCBDE80081244238D4C1
:102A3000F0BCA1F1C041BDE8004100F001BA4FEA8D
:102A4000D22242EA43524FEAD323A7FB02864FEA3F
:102A5000D02040EA415007FB03661EEA0E0F4FEA02
:102A6000D12105FB026658BFA6EB0056B6EB005617
:102A70004FEA520E4EEAC37E18EB0E0E56EB530E83
:102A8000BDD518EB02085E417F1C55F10005B6E785
:102A90004FF480154FF000074FF000064FF000088C
:102AA000ADE7F0BC4FF0000001F1C04101F0004182
:102AB000BDE8008111EA0C1F0CEA131500D00CE0F0
:102AC00013EA0C1F00F025804FF00000F0BC81EAF3
:102AD000030101F00041BDE80081F0BCBDE8004108
:102AE00081EA030100F0ACB9F0BCBDE8004170B56B
:102AF00000F058F9097EFC3E00F007B881EA0301B6
:102B00004FF0000001F00041704781EA030100F03E
:102B100097B9F0BCBDE800414FF000002149704773
:102B2000FFFDFBF9F7F5F4F2F0EEEDEBE9E8E6E492
:102B3000E3E1E0DEDDDBDAD8D7D5D4D3D1D0CFCD19
:102B4000CCCBCAC8C7C6C5C4C2C1C0BFBEBDBCBB52
:102B5000BAB9B8B7B6B5B4B3B2B1B0AFAEADACAB4D
:102B6000AAA9A8A8A7A6A5A4A3A3A2A1A09F9F9E27
:102B70009D9C9C9B9A9999989797969595949393D9
:102B8000929191908F8F8E8E8D8C8C8B8B8A898970
:102B900088888787868585848483838282818180F3
:102BA0000000FF070000F87F10F0004248BF4042DD
:102BB000B0FA80F310FA03F10AD0C3F11D0303F554
:102BC00080634FEA415002EB035202EBD121704780
:102BD0004FF000007047000051EA030C17D41CF5B9
:102BE000801F58BFBCF5801F00F10680994218BFB6
:102BF000704708BF9042704707D711F5801F58BF34
:102C000013F5801F19D499427047894270471CF50B
:102C1000801F08D5BCF5801FF7D58B4218BF7047C1
:102C200008BF824270474FF4001C1CEB410F38BFB5
:102C30001CEB430F01D28B42704770B500F0B2F825
:102C4000922449004FF000514FF08053FFF748BEE7
:102C5000DFF848C170B51CEA111E1EBF1CEA13152F
:102C60009EEA0C0F95EA0C0F00F06F8081EA0304D6
:102C700023EA4C134EEAD47E21EA4C1141F4801130
:102C800043F48013AE44A1FB024CA0FB0365AEF1FC
:102C90007F7E361955EB0C05A1FB034C4CF100036C
:102CA000A0FB021C16EB0C06654153F10003094220
:102CB00018BF46F0010613F4007F0BD14FEA033131
:102CC0004FEA0530340341EA155140EA16506FF0DF
:102CD00003020AE04FEAC3214FEAC520F40241EAA9
:102CE000555140EA56506FF0020202EB2E4201EBC2
:102CF000025585EACE710AD05FEA440C18BF24F071
:102D0000004450F1000041F1000120EAD47040F28B
:102D1000FE7C624500D270BDA84214BF4FF08044D3
:102D20004FF04044002E08BF0024BEF1806FA8BFC2
:102D3000A1F1C041BDE8704080F282804FF00000F8
:102D400001F1C04101F0004170479EEA0C0F0CEA0E
:102D5000131518BF95EA0C0F06D04FF0000081EA5A
:102D6000030E0EF0004170BD00F01CF88900013E1A
:102D700000F007B800F009B84FEA430C5FEA5C5C6A
:102D800008D081EA030100F05BB84FEA410C5FEA2A
:102D90005C5CF6D14FF00000014970470000FF076E
:102DA0000000F87F0EF1020E2EF0030E5EF8046BA9
:102DB000364205D4012A43EB030515F5001F12D84E
:102DC000012841EB010C1CF5001F0CD80ED14FEA75
:102DD000D17C15F5001F0CEB4C0C0CF1020C08BF5C
:102DE0004CEBD37C04E04FF0080C01E04FEAD37CBD
:102DF0000CEB4C0526FA05F606F00706B6F1040CB6
:102E000006D20EEB860CBDE870404CF0010C60471A
:102E1000DFE80CF0090B02024FF000414FF0000018
:102E2000A1F5002170BD19461046012851EB01049F
:102E300018BFD4F5001484BF002001F0004170BD1C
:102E40000808A0F500114FEA3101704753EA010C60
:102E500017D41CF5801F58BFBCF5801F00F10680F9
:102E60008B4218BF704708BF8242704707D713F5DF
:102E7000801F58BF11F5801F19D48B4270479B42A9
:102E800070471CF5801F08D5BCF5801FF7D5994207
:102E900018BF704708BF904270474FF4001C1CEBEE
:102EA000430F38BF1CEB410F01D2994270470FB45A
:102EB0000CBC03BCFFF7C1BE91EA030F10B581F053
:102EC00000413FF565AC83F0004300F0EFB800002F
:102ED0002DE9F04101F5801CBCF5001FC0F2C38054
:102EE0004FEA115C21EA0C510CF1FD0C41F4801108
:102EF0005FEA5C0C0CF5C07C01D3400049413DA465
:102F0000890241EA905187028E0E0A0CA45D04FBEF
:102F100004F602FB06F6C6F14046A4FB0662F60D77
:102F200046EA422606FB06F4A4FB01235242C3F103
:102F3000404338BF5B1EA6FB02420024E6FB03248D
:102F4000D20B42EA4446A6FB0623A1FB02E2A3FB06
:102F500007E4A4184FF0000252F10002E3FB014223
:102F60006442C2F1404E38BFAEF1010EA6FB04230D
:102F70004FF00002E6FB0E32A2FB03464FF00004C6
:102F8000B61954F10004E2FB0264A1FB06E6A4FBBF
:102F900007E816EB08064FF0000858F10008E4FBBC
:102FA00001687642C8F1405838BFA8F10108A2FB79
:102FB00006E4A3FB08E52D194FF0000454F10004CA
:102FC000E2FB0854A1FB05E6A7FB04E818EB0608A2
:102FD0004FF0000656F10006E1FB048618F12005CB
:102FE00056F10006A809A8F11B08B10908F03F082E
:102FF000B8F10A0F40EA86601CD901EB0C51BDE81C
:10300000F08100BFFCF5EEE8E2DDD8D3CFCBC7C33B
:10301000C0BDB9B6B4B1AEACA9A7A5A3A19F9D9BF5
:103020009A9896959392908F8D8C8B8988878685B8
:1030300084838281A0FB006800FB01F208EB420858
:10304000B8EB872807D5341858EB0104D5D5401CB8
:1030500051F10001D1E7341A78EB0104CDD4401EC0
:1030600071F10001C9E75FEA4C0C5FEA9C5C0DD18D
:1030700005D34FF0000001F00041BDE8F081BDE84C
:10308000F04170B5FFF78EFE6DDBFFBEBDE8F0418D
:103090004FF00000004970470000F87F10B591EA3A
:1030A000030F48BF83F000433FF572AB841A71EB06
:1030B000030C07D212198CF0004C43EB0C03001BDD
:1030C00061EB0C01DFF8A4E14FEA1154A4EB135CAF
:1030D0001EEA430F18BF9EEA445F00F0B08023EA67
:1030E0006E03524221EA0451C3EB6E0338BF5B1EEC
:1030F000DCF1200E25D322FA0CFE10EB0E0043FA71
:103100000CFE41EB0E01CCF1200E03FA0EFE10EB8B
:103110000E0051F10001CCF1200E29D412FA0EF26A
:1031200001EB0451BDE8104058BF7047401C1CBF64
:10313000B2F1004F704700280CBF491C20F001007D
:10314000704712EB020E43EB030218BF4FF0010E63
:103150004EEA4202ACF1200CDCF11E0E54D943FAC7
:103160000CFE10EB0E0051F1FF31CCF11E0ED5D547
:103170000EF1010E12FA0EFE404141EB010101EB8E
:10318000445C5FEA5C5C10D910EBDE7001EB04512B
:1031900038BFBEF1004FBDE8104018BF704700288F
:1031A0000CBF491C20F00100704730D24FEAD42CEC
:1031B00011F5001124F400641BD0B1FA81F20B3A2E
:1031C000A41AA41ED2F12003914030FA03F319434C
:1031D000904001EBCC71002C01EB0451BDE8104094
:1031E000A8BF704701F1C0414FF0000001F000415D
:1031F0007047B0FA80F310FA03F100D110BDE41A61
:10320000173C4805C90AE4E701EB045110BD491019
:1032100001EB0451BDE810404FEA300002E04FF0EE
:10322000000170474A0008BF0042F8D0B2F5001F05
:1032300028BF704701F000414FF0000070479EEA40
:10324000445F07D011EA5E0FBDE8104004BF0021C3
:1032500000207047BDE8104070B5FFF7A3FD00BF28
:1032600040DFF63E83F00041104670470000E0FF6B
:10327000FF2141EAD050C00570470CF00F03092B25
:1032800008BF082000F059800A2B0BD0082B18BF6C
:10329000704708BF1CF0400F0AD04FF000004FF0FD
:1032A000000170471CF0400F18BF4FF000407047FE
:1032B0001CF0100F08D020F0704300F07F4242EA6B
:1032C000D3014FEA4370704700F0604021F07F4225
:1032D00042EA000201F07F4040EA727070474FF00E
:1032E000FF0C4CF4E06C1CEA11531CBF9CEA030C6D
:1032F0009445C2BFDA4201EB02517047002B0DD05A
:10330000BCF1000F0FD0002A01F00041A4BF41F032
:10331000E04141F07F614FF00000704701F0004153
:103320004FF00000704750EA01334FF09B0C18BF7C
:103330004CF0806C7FF4CCAA70471CF4801F11D035
:103340001CF4E02F03D06FEACC31490070474FF0F6
:103350004050EFF3008222F0704242EA000282F312
:10336000008870474FF00000704700000000000028
:10337000000000000000F03F000000000000F83FE7
:1033800000000000000000000000004003B8E23F21
:10339000000000000000000006D0CF43EBFD4C3ED3
:1033A000033333333333E33FFFAB6FDBB66DDB3FC8
:1033B0004D268F515555D53F01411DA96074D13F10
:1033C00065DBC9934A86CD3FEF4E454A287ECA3F0A
:1033D0003E5555555555C53F93BDBE166CC166BF8C
:1033E0002CDE25AF6A56113FF16BD2C541BDBBBE85
:1033F000D0A4BE726937663E0000000000000000E5
:103400002034000800000020380000006C01000893
:1034100058340008380000207807000088010008B0
:1034200000A24A04000000000000000001020304A2
:10343000060708090100000000000000000000006D
:10344000000000000000010203040102030406075B
:0834500008090204060800004F
:0400000508000131BD
:00000001FF
